:100000008A11FB2F00308A000408840A820700341A
:10001000013400340A34003464340034E8340334E6
:0C00200010342734253464340A340034D2
:100EFE00831603131116831203139F171F138316E2
:100F0E0003131F088F3950389F0008007108803A6C
:100F1E00FF0080307F02031D962F08307002031CE5
:100F2E009B2FF001F1010800831203131F107008AC
:100F3E00F200F20DF20D1F087206E33972069F00E1
:100F4E001F140330F200F20BAA2F831203139F1407
:100F5E009F18AF2F1E08F100831603131E08F00012
:100F6E0008008A117F278A11FF308316031387002A
:100F7E00871207120430F0000030F1008A118D271D
:100F8E008A117108F4007008F3007408803AFF00AB
:100F9E0082307F02031DD52F01307302031CDB2F1D
:100FAE00831203138716DE2F831203138712023068
:100FBE00F0000030F1008A118D278A117108F600B9
:100FCE007008F5007608803AFF0082307F02031D1C
:100FDE00F22F01307502031CF82F8312031307162C
:100FEE00C12F83120313C02FF701F80183018A1159
:020FFE00B82F0A
:02400E00F4FFBD
:00000001FF
