:100000008A11FB2F00308A000408840A820700341A
:10001000013400340A34003464340034E8340334E6
:0C00200010342734253464340A340034D2
:100F3800831603131116831203139F171F138316A7
:100F480003131F088F3910389F0008008A119C2747
:100F58008A11FF3083160313870087120712B72FF1
:100F68008312031387160430F0000030F1008A1151
:100F7800D1278A117108F4007008F3007408803AC8
:100F8800FF0082307F02031DCB2F0130730203184C
:100F9800B42F831203138712B72F7108803AFF000A
:100FA80080307F02031DDA2F08307002031CDF2F08
:100FB800F001F1010800831203131F107008F200FA
:100FC800F20DF20D1F087206E33972069F001F1416
:100FD800ED2FEE2F0000831203139F149F18F22F9A
:100FE8001E08F100831603131E08F0000800F5011F
:080FF800F60183018A11AA2F02
:02400E00F4FFBD
:00000001FF
