:100000008A11FB2F00308A000408840A820700341A
:10001000013400340A34003464340034E8340334E6
:0C00200010342734253464340A340034D2
:100F8400FF3083160313870011168712071283128A
:100F940003139F171F13831603131F088F39103869
:100FA4009F00831203131F08E33910389F001F1496
:100FB400DB2FDC2F0000831203139F149F18E02FF4
:100FC4001E08F300831603131E08F2007308803A08
:100FD400FF0082307F02031DF12F01307202031CD7
:100FE400F72F831203138716DA2F83120313871242
:0C0FF400DA2FF001F10183018A11C22FF5
:02400E00F4FFBD
:00000001FF
